{
  "_format": "hh-sol-artifact-1",
  "contractName": "XENCrypto",
  "sourceName": "contracts/XEN-crypto/XENCrypto.sol",
  "abi": [
    {
      "inputs": [],
      "stateMutability": "nonpayable",
      "type": "constructor"
    },
    {
      "anonymous": false,
      "inputs": [
        {
          "indexed": true,
          "internalType": "address",
          "name": "owner",
          "type": "address"
        },
        {
          "indexed": true,
          "internalType": "address",
          "name": "spender",
          "type": "address"
        },
        {
          "indexed": false,
          "internalType": "uint256",
          "name": "value",
          "type": "uint256"
        }
      ],
      "name": "Approval",
      "type": "event"
    },
    {
      "anonymous": false,
      "inputs": [
        {
          "indexed": true,
          "internalType": "address",
          "name": "user",
          "type": "address"
        },
        {
          "indexed": false,
          "internalType": "uint256",
          "name": "rewardAmount",
          "type": "uint256"
        }
      ],
      "name": "MintClaimed",
      "type": "event"
    },
    {
      "anonymous": false,
      "inputs": [
        {
          "indexed": true,
          "internalType": "address",
          "name": "user",
          "type": "address"
        },
        {
          "indexed": false,
          "internalType": "uint256",
          "name": "term",
          "type": "uint256"
        },
        {
          "indexed": false,
          "internalType": "uint256",
          "name": "rank",
          "type": "uint256"
        }
      ],
      "name": "RankClaimed",
      "type": "event"
    },
    {
      "anonymous": false,
      "inputs": [
        {
          "indexed": true,
          "internalType": "address",
          "name": "user",
          "type": "address"
        },
        {
          "indexed": false,
          "internalType": "uint256",
          "name": "amount",
          "type": "uint256"
        },
        {
          "indexed": false,
          "internalType": "uint256",
          "name": "term",
          "type": "uint256"
        }
      ],
      "name": "Staked",
      "type": "event"
    },
    {
      "anonymous": false,
      "inputs": [
        {
          "indexed": true,
          "internalType": "address",
          "name": "from",
          "type": "address"
        },
        {
          "indexed": true,
          "internalType": "address",
          "name": "to",
          "type": "address"
        },
        {
          "indexed": false,
          "internalType": "uint256",
          "name": "value",
          "type": "uint256"
        }
      ],
      "name": "Transfer",
      "type": "event"
    },
    {
      "anonymous": false,
      "inputs": [
        {
          "indexed": true,
          "internalType": "address",
          "name": "user",
          "type": "address"
        },
        {
          "indexed": false,
          "internalType": "uint256",
          "name": "amount",
          "type": "uint256"
        },
        {
          "indexed": false,
          "internalType": "uint256",
          "name": "reward",
          "type": "uint256"
        }
      ],
      "name": "Withdrawn",
      "type": "event"
    },
    {
      "inputs": [],
      "name": "AUTHORS",
      "outputs": [
        {
          "internalType": "string",
          "name": "",
          "type": "string"
        }
      ],
      "stateMutability": "view",
      "type": "function"
    },
    {
      "inputs": [],
      "name": "DAYS_IN_YEAR",
      "outputs": [
        {
          "internalType": "uint256",
          "name": "",
          "type": "uint256"
        }
      ],
      "stateMutability": "view",
      "type": "function"
    },
    {
      "inputs": [],
      "name": "EAA_PM_START",
      "outputs": [
        {
          "internalType": "uint256",
          "name": "",
          "type": "uint256"
        }
      ],
      "stateMutability": "view",
      "type": "function"
    },
    {
      "inputs": [],
      "name": "EAA_PM_STEP",
      "outputs": [
        {
          "internalType": "uint256",
          "name": "",
          "type": "uint256"
        }
      ],
      "stateMutability": "view",
      "type": "function"
    },
    {
      "inputs": [],
      "name": "EAA_RANK_STEP",
      "outputs": [
        {
          "internalType": "uint256",
          "name": "",
          "type": "uint256"
        }
      ],
      "stateMutability": "view",
      "type": "function"
    },
    {
      "inputs": [],
      "name": "GENESIS_RANK",
      "outputs": [
        {
          "internalType": "uint256",
          "name": "",
          "type": "uint256"
        }
      ],
      "stateMutability": "view",
      "type": "function"
    },
    {
      "inputs": [],
      "name": "MAX_PENALTY_PCT",
      "outputs": [
        {
          "internalType": "uint256",
          "name": "",
          "type": "uint256"
        }
      ],
      "stateMutability": "view",
      "type": "function"
    },
    {
      "inputs": [],
      "name": "MAX_TERM_END",
      "outputs": [
        {
          "internalType": "uint256",
          "name": "",
          "type": "uint256"
        }
      ],
      "stateMutability": "view",
      "type": "function"
    },
    {
      "inputs": [],
      "name": "MAX_TERM_START",
      "outputs": [
        {
          "internalType": "uint256",
          "name": "",
          "type": "uint256"
        }
      ],
      "stateMutability": "view",
      "type": "function"
    },
    {
      "inputs": [],
      "name": "MIN_TERM",
      "outputs": [
        {
          "internalType": "uint256",
          "name": "",
          "type": "uint256"
        }
      ],
      "stateMutability": "view",
      "type": "function"
    },
    {
      "inputs": [],
      "name": "REWARD_AMPLIFIER_END",
      "outputs": [
        {
          "internalType": "uint256",
          "name": "",
          "type": "uint256"
        }
      ],
      "stateMutability": "view",
      "type": "function"
    },
    {
      "inputs": [],
      "name": "REWARD_AMPLIFIER_START",
      "outputs": [
        {
          "internalType": "uint256",
          "name": "",
          "type": "uint256"
        }
      ],
      "stateMutability": "view",
      "type": "function"
    },
    {
      "inputs": [],
      "name": "SECONDS_IN_DAY",
      "outputs": [
        {
          "internalType": "uint256",
          "name": "",
          "type": "uint256"
        }
      ],
      "stateMutability": "view",
      "type": "function"
    },
    {
      "inputs": [],
      "name": "TERM_AMPLIFIER",
      "outputs": [
        {
          "internalType": "uint256",
          "name": "",
          "type": "uint256"
        }
      ],
      "stateMutability": "view",
      "type": "function"
    },
    {
      "inputs": [],
      "name": "TERM_AMPLIFIER_THRESHOLD",
      "outputs": [
        {
          "internalType": "uint256",
          "name": "",
          "type": "uint256"
        }
      ],
      "stateMutability": "view",
      "type": "function"
    },
    {
      "inputs": [],
      "name": "WITHDRAWAL_WINDOW_DAYS",
      "outputs": [
        {
          "internalType": "uint256",
          "name": "",
          "type": "uint256"
        }
      ],
      "stateMutability": "view",
      "type": "function"
    },
    {
      "inputs": [],
      "name": "XEN_APY_DAYS_STEP",
      "outputs": [
        {
          "internalType": "uint256",
          "name": "",
          "type": "uint256"
        }
      ],
      "stateMutability": "view",
      "type": "function"
    },
    {
      "inputs": [],
      "name": "XEN_APY_END",
      "outputs": [
        {
          "internalType": "uint256",
          "name": "",
          "type": "uint256"
        }
      ],
      "stateMutability": "view",
      "type": "function"
    },
    {
      "inputs": [],
      "name": "XEN_APY_START",
      "outputs": [
        {
          "internalType": "uint256",
          "name": "",
          "type": "uint256"
        }
      ],
      "stateMutability": "view",
      "type": "function"
    },
    {
      "inputs": [],
      "name": "XEN_MIN_BURN",
      "outputs": [
        {
          "internalType": "uint256",
          "name": "",
          "type": "uint256"
        }
      ],
      "stateMutability": "view",
      "type": "function"
    },
    {
      "inputs": [],
      "name": "XEN_MIN_STAKE",
      "outputs": [
        {
          "internalType": "uint256",
          "name": "",
          "type": "uint256"
        }
      ],
      "stateMutability": "view",
      "type": "function"
    },
    {
      "inputs": [],
      "name": "activeMinters",
      "outputs": [
        {
          "internalType": "uint256",
          "name": "",
          "type": "uint256"
        }
      ],
      "stateMutability": "view",
      "type": "function"
    },
    {
      "inputs": [],
      "name": "activeStakes",
      "outputs": [
        {
          "internalType": "uint256",
          "name": "",
          "type": "uint256"
        }
      ],
      "stateMutability": "view",
      "type": "function"
    },
    {
      "inputs": [
        {
          "internalType": "address",
          "name": "owner",
          "type": "address"
        },
        {
          "internalType": "address",
          "name": "spender",
          "type": "address"
        }
      ],
      "name": "allowance",
      "outputs": [
        {
          "internalType": "uint256",
          "name": "",
          "type": "uint256"
        }
      ],
      "stateMutability": "view",
      "type": "function"
    },
    {
      "inputs": [
        {
          "internalType": "address",
          "name": "spender",
          "type": "address"
        },
        {
          "internalType": "uint256",
          "name": "amount",
          "type": "uint256"
        }
      ],
      "name": "approve",
      "outputs": [
        {
          "internalType": "bool",
          "name": "",
          "type": "bool"
        }
      ],
      "stateMutability": "nonpayable",
      "type": "function"
    },
    {
      "inputs": [
        {
          "internalType": "address",
          "name": "account",
          "type": "address"
        }
      ],
      "name": "balanceOf",
      "outputs": [
        {
          "internalType": "uint256",
          "name": "",
          "type": "uint256"
        }
      ],
      "stateMutability": "view",
      "type": "function"
    },
    {
      "inputs": [
        {
          "internalType": "address",
          "name": "user",
          "type": "address"
        },
        {
          "internalType": "uint256",
          "name": "amount",
          "type": "uint256"
        }
      ],
      "name": "burn",
      "outputs": [],
      "stateMutability": "nonpayable",
      "type": "function"
    },
    {
      "inputs": [],
      "name": "claimMintReward",
      "outputs": [],
      "stateMutability": "nonpayable",
      "type": "function"
    },
    {
      "inputs": [
        {
          "internalType": "address",
          "name": "other",
          "type": "address"
        },
        {
          "internalType": "uint256",
          "name": "pct",
          "type": "uint256"
        }
      ],
      "name": "claimMintRewardAndShare",
      "outputs": [],
      "stateMutability": "nonpayable",
      "type": "function"
    },
    {
      "inputs": [
        {
          "internalType": "uint256",
          "name": "pct",
          "type": "uint256"
        },
        {
          "internalType": "uint256",
          "name": "term",
          "type": "uint256"
        }
      ],
      "name": "claimMintRewardAndStake",
      "outputs": [],
      "stateMutability": "nonpayable",
      "type": "function"
    },
    {
      "inputs": [
        {
          "internalType": "uint256",
          "name": "term",
          "type": "uint256"
        }
      ],
      "name": "claimRank",
      "outputs": [],
      "stateMutability": "nonpayable",
      "type": "function"
    },
    {
      "inputs": [],
      "name": "decimals",
      "outputs": [
        {
          "internalType": "uint8",
          "name": "",
          "type": "uint8"
        }
      ],
      "stateMutability": "view",
      "type": "function"
    },
    {
      "inputs": [
        {
          "internalType": "address",
          "name": "spender",
          "type": "address"
        },
        {
          "internalType": "uint256",
          "name": "subtractedValue",
          "type": "uint256"
        }
      ],
      "name": "decreaseAllowance",
      "outputs": [
        {
          "internalType": "bool",
          "name": "",
          "type": "bool"
        }
      ],
      "stateMutability": "nonpayable",
      "type": "function"
    },
    {
      "inputs": [],
      "name": "genesisTs",
      "outputs": [
        {
          "internalType": "uint256",
          "name": "",
          "type": "uint256"
        }
      ],
      "stateMutability": "view",
      "type": "function"
    },
    {
      "inputs": [],
      "name": "getCurrentAMP",
      "outputs": [
        {
          "internalType": "uint256",
          "name": "",
          "type": "uint256"
        }
      ],
      "stateMutability": "view",
      "type": "function"
    },
    {
      "inputs": [],
      "name": "getCurrentAPY",
      "outputs": [
        {
          "internalType": "uint256",
          "name": "",
          "type": "uint256"
        }
      ],
      "stateMutability": "view",
      "type": "function"
    },
    {
      "inputs": [],
      "name": "getCurrentEAAR",
      "outputs": [
        {
          "internalType": "uint256",
          "name": "",
          "type": "uint256"
        }
      ],
      "stateMutability": "view",
      "type": "function"
    },
    {
      "inputs": [],
      "name": "getCurrentMaxTerm",
      "outputs": [
        {
          "internalType": "uint256",
          "name": "",
          "type": "uint256"
        }
      ],
      "stateMutability": "view",
      "type": "function"
    },
    {
      "inputs": [
        {
          "internalType": "uint256",
          "name": "rankDelta",
          "type": "uint256"
        },
        {
          "internalType": "uint256",
          "name": "amplifier",
          "type": "uint256"
        },
        {
          "internalType": "uint256",
          "name": "term",
          "type": "uint256"
        },
        {
          "internalType": "uint256",
          "name": "eaa",
          "type": "uint256"
        }
      ],
      "name": "getGrossReward",
      "outputs": [
        {
          "internalType": "uint256",
          "name": "",
          "type": "uint256"
        }
      ],
      "stateMutability": "pure",
      "type": "function"
    },
    {
      "inputs": [],
      "name": "getUserMint",
      "outputs": [
        {
          "components": [
            {
              "internalType": "address",
              "name": "user",
              "type": "address"
            },
            {
              "internalType": "uint256",
              "name": "term",
              "type": "uint256"
            },
            {
              "internalType": "uint256",
              "name": "maturityTs",
              "type": "uint256"
            },
            {
              "internalType": "uint256",
              "name": "rank",
              "type": "uint256"
            },
            {
              "internalType": "uint256",
              "name": "amplifier",
              "type": "uint256"
            },
            {
              "internalType": "uint256",
              "name": "eaaRate",
              "type": "uint256"
            }
          ],
          "internalType": "struct XENCrypto.MintInfo",
          "name": "",
          "type": "tuple"
        }
      ],
      "stateMutability": "view",
      "type": "function"
    },
    {
      "inputs": [],
      "name": "getUserStake",
      "outputs": [
        {
          "components": [
            {
              "internalType": "uint256",
              "name": "term",
              "type": "uint256"
            },
            {
              "internalType": "uint256",
              "name": "maturityTs",
              "type": "uint256"
            },
            {
              "internalType": "uint256",
              "name": "amount",
              "type": "uint256"
            },
            {
              "internalType": "uint256",
              "name": "apy",
              "type": "uint256"
            }
          ],
          "internalType": "struct XENCrypto.StakeInfo",
          "name": "",
          "type": "tuple"
        }
      ],
      "stateMutability": "view",
      "type": "function"
    },
    {
      "inputs": [],
      "name": "globalRank",
      "outputs": [
        {
          "internalType": "uint256",
          "name": "",
          "type": "uint256"
        }
      ],
      "stateMutability": "view",
      "type": "function"
    },
    {
      "inputs": [
        {
          "internalType": "address",
          "name": "spender",
          "type": "address"
        },
        {
          "internalType": "uint256",
          "name": "addedValue",
          "type": "uint256"
        }
      ],
      "name": "increaseAllowance",
      "outputs": [
        {
          "internalType": "bool",
          "name": "",
          "type": "bool"
        }
      ],
      "stateMutability": "nonpayable",
      "type": "function"
    },
    {
      "inputs": [],
      "name": "name",
      "outputs": [
        {
          "internalType": "string",
          "name": "",
          "type": "string"
        }
      ],
      "stateMutability": "view",
      "type": "function"
    },
    {
      "inputs": [
        {
          "internalType": "uint256",
          "name": "amount",
          "type": "uint256"
        },
        {
          "internalType": "uint256",
          "name": "term",
          "type": "uint256"
        }
      ],
      "name": "stake",
      "outputs": [],
      "stateMutability": "nonpayable",
      "type": "function"
    },
    {
      "inputs": [],
      "name": "symbol",
      "outputs": [
        {
          "internalType": "string",
          "name": "",
          "type": "string"
        }
      ],
      "stateMutability": "view",
      "type": "function"
    },
    {
      "inputs": [],
      "name": "totalSupply",
      "outputs": [
        {
          "internalType": "uint256",
          "name": "",
          "type": "uint256"
        }
      ],
      "stateMutability": "view",
      "type": "function"
    },
    {
      "inputs": [],
      "name": "totalXenStaked",
      "outputs": [
        {
          "internalType": "uint256",
          "name": "",
          "type": "uint256"
        }
      ],
      "stateMutability": "view",
      "type": "function"
    },
    {
      "inputs": [
        {
          "internalType": "address",
          "name": "to",
          "type": "address"
        },
        {
          "internalType": "uint256",
          "name": "amount",
          "type": "uint256"
        }
      ],
      "name": "transfer",
      "outputs": [
        {
          "internalType": "bool",
          "name": "",
          "type": "bool"
        }
      ],
      "stateMutability": "nonpayable",
      "type": "function"
    },
    {
      "inputs": [
        {
          "internalType": "address",
          "name": "from",
          "type": "address"
        },
        {
          "internalType": "address",
          "name": "to",
          "type": "address"
        },
        {
          "internalType": "uint256",
          "name": "amount",
          "type": "uint256"
        }
      ],
      "name": "transferFrom",
      "outputs": [
        {
          "internalType": "bool",
          "name": "",
          "type": "bool"
        }
      ],
      "stateMutability": "nonpayable",
      "type": "function"
    },
    {
      "inputs": [
        {
          "internalType": "address",
          "name": "",
          "type": "address"
        }
      ],
      "name": "userBurns",
      "outputs": [
        {
          "internalType": "uint256",
          "name": "",
          "type": "uint256"
        }
      ],
      "stateMutability": "view",
      "type": "function"
    },
    {
      "inputs": [
        {
          "internalType": "address",
          "name": "",
          "type": "address"
        }
      ],
      "name": "userMints",
      "outputs": [
        {
          "internalType": "address",
          "name": "user",
          "type": "address"
        },
        {
          "internalType": "uint256",
          "name": "term",
          "type": "uint256"
        },
        {
          "internalType": "uint256",
          "name": "maturityTs",
          "type": "uint256"
        },
        {
          "internalType": "uint256",
          "name": "rank",
          "type": "uint256"
        },
        {
          "internalType": "uint256",
          "name": "amplifier",
          "type": "uint256"
        },
        {
          "internalType": "uint256",
          "name": "eaaRate",
          "type": "uint256"
        }
      ],
      "stateMutability": "view",
      "type": "function"
    },
    {
      "inputs": [
        {
          "internalType": "address",
          "name": "",
          "type": "address"
        }
      ],
      "name": "userStakes",
      "outputs": [
        {
          "internalType": "uint256",
          "name": "term",
          "type": "uint256"
        },
        {
          "internalType": "uint256",
          "name": "maturityTs",
          "type": "uint256"
        },
        {
          "internalType": "uint256",
          "name": "amount",
          "type": "uint256"
        },
        {
          "internalType": "uint256",
          "name": "apy",
          "type": "uint256"
        }
      ],
      "stateMutability": "view",
      "type": "function"
    },
    {
      "inputs": [],
      "name": "withdraw",
      "outputs": [],
      "stateMutability": "nonpayable",
      "type": "function"
    }
  ],
  "bytecode": "0x60a060405260016005553480156200001657600080fd5b506040518060400160405280600a81526020016958454e2043727970746f60b01b815250604051806040016040528060038152602001622c22a760e91b815250816003908162000067919062000128565b50600462000076828262000128565b50504260805250620001f4565b634e487b7160e01b600052604160045260246000fd5b600181811c90821680620000ae57607f821691505b602082108103620000cf57634e487b7160e01b600052602260045260246000fd5b50919050565b601f8211156200012357600081815260208120601f850160051c81016020861015620000fe5750805b601f850160051c820191505b818110156200011f578281556001016200010a565b5050505b505050565b81516001600160401b0381111562000144576200014462000083565b6200015c8162000155845462000099565b84620000d5565b602080601f8311600181146200019457600084156200017b5750858301515b600019600386901b1c1916600185901b1785556200011f565b600085815260208120601f198616915b82811015620001c557888601518255948401946001909101908401620001a4565b5085821015620001e45787850151600019600388901b60f8161c191681555b5050505050600190811b01905550565b6080516129b56200021e600039600081816106fd0152818161228001526122e301526129b56000f3fe608060405234801561001057600080fd5b50600436106103425760003560e01c80637e7aa62e116101b8578063b4800cdc11610104578063df282331116100a2578063ed2f23691161007c578063ed2f236914610728578063f060482914610731578063f340faed14610739578063fed742691461074357600080fd5b8063df28233114610674578063e3af6d0a146106f8578063e81917b41461071f57600080fd5b8063c0c65259116100de578063c0c6525914610631578063c56f0bab14610639578063ce653d5f14610641578063dd62ed3e1461066157600080fd5b8063b4800cdc14610620578063ba3ec74114610629578063bcfe394f1461041d57600080fd5b80639920245411610171578063a457c2d71161014b578063a457c2d7146105de578063a9059cbb146105f1578063b0fd1fc214610604578063b21d35f21461061757600080fd5b806399202454146105b05780639dc29fac146105b85780639ff054df146105cb57600080fd5b80637e7aa62e146105335780638979c87c1461053b5780638da7ad2314610543578063909a2ff61461059857806395d89b41146105a0578063962ca496146105a857600080fd5b80632a62d96611610292578063543d3652116102305780637010d7a11161020a5780637010d7a11461049757806370a08231146104ef57806372475f94146105185780637b0472f01461052057600080fd5b8063543d36521461041d5780635bccb4c41461047a57806361a52a361461048d57600080fd5b8063395093511161026c578063395093511461044f5780633ccfd60b14610462578063451257151461046a57806352c7f8dc1461047257600080fd5b80632a62d966146103b4578063313ce5671461043857806332870fda1461044757600080fd5b8063110d7fc2116102ff5780631c244082116102d95780631c244082146103ff5780631c560305146104085780631c6f212e1461041d57806323b872dd1461042557600080fd5b8063110d7fc2146103b457806316f9c8fd146103bc57806318160ddd146103f757600080fd5b80630237893214610347578063069612a51461036357806306fdde031461036c578063095ea7b3146103815780630bfae56b146103a45780630f2e1228146103ac575b600080fd5b61035061016d81565b6040519081526020015b60405180910390f35b61035060085481565b61037461074b565b60405161035a919061263b565b61039461038f3660046126a5565b6107dd565b604051901515815260200161035a565b6103506107f7565b610350606381565b610350600081565b6103c4610808565b60405161035a91908151815260208083015190820152604080830151908201526060918201519181019190915260800190565b600254610350565b61035060055481565b61041b6104163660046126a5565b610879565b005b610350600181565b6103946104333660046126cf565b610ada565b6040516012815260200161035a565b610350605a81565b61039461045d3660046126a5565b610afe565b61041b610b20565b610350610c74565b61041b610c83565b61041b61048836600461270b565b610da6565b6103506201518081565b61049f6110fd565b60405161035a919081516001600160a01b031681526020808301519082015260408083015190820152606080830151908201526080808301519082015260a0918201519181019190915260c00190565b6103506104fd36600461272d565b6001600160a01b031660009081526020819052604090205490565b610350600f81565b61041b61052e36600461270b565b6111a2565b610350600281565b6103506113c0565b61057861055136600461272d565b600a6020526000908152604090208054600182015460028301546003909301549192909184565b60408051948552602085019390935291830152606082015260800161035a565b610350606481565b6103746113ca565b6103506113d9565b6103506113e3565b61041b6105c63660046126a5565b6113ed565b61041b6105d9366004612748565b61159f565b6103946105ec3660046126a5565b611818565b6103946105ff3660046126a5565b611893565b610350610612366004612761565b6118a1565b61035061138881565b61035060065481565b610374611931565b61035061194d565b610350600781565b61035061064f36600461272d565b600b6020526000908152604090205481565b61035061066f366004612793565b61195c565b6106c161068236600461272d565b6009602052600090815260409020805460018201546002830154600384015460048501546005909501546001600160a01b039094169492939192909186565b604080516001600160a01b0390971687526020870195909552938501929092526060840152608083015260a082015260c00161035a565b6103507f000000000000000000000000000000000000000000000000000000000000000081565b610350610bb881565b61035060075481565b610350611987565b610350620186a081565b610350601481565b60606003805461075a906127c6565b80601f0160208091040260200160405190810160405280929190818152602001828054610786906127c6565b80156107d35780601f106107a8576101008083540402835291602001916107d3565b820191906000526020600020905b8154815290600101906020018083116107b657829003601f168201915b5050505050905090565b6000336107eb8185856119a0565b60019150505b92915050565b610805620151806064612816565b81565b6108336040518060800160405280600081526020016000815260200160008152602001600081525090565b50336000908152600a6020908152604091829020825160808101845281548152600182015492810192909252600281015492820192909252600390910154606082015290565b33600090815260096020908152604091829020825160c08101845281546001600160a01b03908116825260018301549382019390935260028201549381019390935260038101546060840152600481015460808401526005015460a083015283166109395760405162461bcd60e51b815260206004820152602560248201527f4352616e6b3a2043616e6e6f742073686172652077697468207a65726f206164604482015264647265737360d81b60648201526084015b60405180910390fd5b600082116109895760405162461bcd60e51b815260206004820181905260248201527f4352616e6b3a2043616e6e6f74207368617265207a65726f2070657263656e746044820152606401610930565b606582106109d95760405162461bcd60e51b815260206004820181905260248201527f4352616e6b3a2043616e6e6f74207368617265203130302b2070657263656e746044820152606401610930565b60008160600151116109fd5760405162461bcd60e51b81526004016109309061282d565b80604001514211610a205760405162461bcd60e51b81526004016109309061285c565b6000610a4382606001518360200151846040015185608001518660a00151611ac5565b610a5590670de0b6b3a7640000612816565b905060006064610a658584612816565b610a6f91906128a7565b90506000610a7d82846128c9565b9050610a8a335b82611bc3565b610a948683611bc3565b610a9c611c82565b60405183815233907fd74752b13281df13701575f3a507e9b1242e0b5fb040143211c481c1fce573a6906020015b60405180910390a2505050505050565b600033610ae8858285611cd6565b610af3858585611d50565b506001949350505050565b6000336107eb818585610b11838361195c565b610b1b91906128dc565b6119a0565b336000908152600a6020908152604091829020825160808101845281548152600182015492810192909252600281015492820183905260030154606082015290610ba35760405162461bcd60e51b815260206004820152601460248201527358454e3a206e6f207374616b652065786973747360601b6044820152606401610930565b6000610bc18260400151836000015184602001518560600151611ef4565b600780549192506000610bd3836128ef565b9190505550816040015160086000828254610bee91906128c9565b90915550610c0d905033828460400151610c0891906128dc565b611bc3565b60408083015181519081526020810183905233917f92ccf450a286a957af52509bc1c9939d1a6a481783e142e41e2499f0bb66ebc6910160405180910390a25050336000908152600a60205260408120818155600181018290556002810182905560030155565b6000610c7e611f52565b905090565b33600090815260096020908152604091829020825160c08101845281546001600160a01b031681526001820154928101929092526002810154928201929092526003820154606082018190526004830154608083015260059092015460a082015290610d015760405162461bcd60e51b81526004016109309061282d565b80604001514211610d245760405162461bcd60e51b81526004016109309061285c565b6000610d4782606001518360200151846040015185608001518660a00151611ac5565b610d5990670de0b6b3a7640000612816565b9050610d6433610a84565b610d6c611c82565b60405181815233907fd74752b13281df13701575f3a507e9b1242e0b5fb040143211c481c1fce573a6906020015b60405180910390a25050565b33600090815260096020908152604091829020825160c08101845281546001600160a01b03168152600182015492810192909252600281015492820192909252600382015460608201526004820154608082015260059091015460a082015260658310610e555760405162461bcd60e51b815260206004820181905260248201527f4352616e6b3a2043616e6e6f74207368617265203e3130302070657263656e746044820152606401610930565b6000816060015111610e795760405162461bcd60e51b81526004016109309061282d565b80604001514211610e9c5760405162461bcd60e51b81526004016109309061285c565b6000610ebf82606001518360200151846040015185608001518660a00151611ac5565b610ed190670de0b6b3a7640000612816565b905060006064610ee18684612816565b610eeb91906128a7565b90506000610ef982846128c9565b9050610f0433610a84565b610f0c611c82565b60405183815233907fd74752b13281df13701575f3a507e9b1242e0b5fb040143211c481c1fce573a69060200160405180910390a260008211610f885760405162461bcd60e51b815260206004820152601460248201527358454e3a2042656c6f77206d696e207374616b6560601b6044820152606401610930565b6001610f976201518082612816565b610fa191906128c9565b610fae6201518087612816565b11610ff75760405162461bcd60e51b815260206004820152601960248201527858454e3a2042656c6f77206d696e207374616b65207465726d60381b6044820152606401610930565b611006620151806103e8612816565b6110119060016128dc565b61101e6201518087612816565b106110675760405162461bcd60e51b815260206004820152601960248201527858454e3a2041626f7665206d6178207374616b65207465726d60381b6044820152606401610930565b336000908152600a6020526040902060020154156110bb5760405162461bcd60e51b815260206004820152601160248201527058454e3a207374616b652065786973747360781b6044820152606401610930565b6110c58286612059565b604080518381526020810187905233917f1449c6dd7851abc30abf37f57715f492010519147cc2652fbc38202c18a6ee909101610aca565b61113f6040518060c0016040528060006001600160a01b0316815260200160008152602001600081526020016000815260200160008152602001600081525090565b5033600090815260096020908152604091829020825160c08101845281546001600160a01b03168152600182015492810192909252600281015492820192909252600382015460608201526004820154608082015260059091015460a082015290565b816111ac336104fd565b10156111fa5760405162461bcd60e51b815260206004820152601760248201527f58454e3a206e6f7420656e6f7567682062616c616e63650000000000000000006044820152606401610930565b600082116112415760405162461bcd60e51b815260206004820152601460248201527358454e3a2042656c6f77206d696e207374616b6560601b6044820152606401610930565b60016112506201518082612816565b61125a91906128c9565b6112676201518083612816565b116112b05760405162461bcd60e51b815260206004820152601960248201527858454e3a2042656c6f77206d696e207374616b65207465726d60381b6044820152606401610930565b6112bf620151806103e8612816565b6112ca9060016128dc565b6112d76201518083612816565b106113205760405162461bcd60e51b815260206004820152601960248201527858454e3a2041626f7665206d6178207374616b65207465726d60381b6044820152606401610930565b336000908152600a6020526040902060020154156113745760405162461bcd60e51b815260206004820152601160248201527058454e3a207374616b652065786973747360781b6044820152606401610930565b61137e33836120fc565b6113888282612059565b604080518381526020810183905233917f1449c6dd7851abc30abf37f57715f492010519147cc2652fbc38202c18a6ee909101610d9a565b6000610c7e612226565b60606004805461075a906127c6565b6000610c7e61226a565b6000610c7e6122d7565b600081116114355760405162461bcd60e51b8152602060048201526015602482015274109d5c9b8e8810995b1bddc81b5a5b881b1a5b5a5d605a1b6044820152606401610930565b336040516301ffc9a760e01b815263543746b160e01b60048201526001600160a01b0391909116906301ffc9a790602401602060405180830381865afa158015611483573d6000803e3d6000fd5b505050506040513d601f19601f820116820180604052508101906114a79190612906565b6114f35760405162461bcd60e51b815260206004820152601e60248201527f4275726e3a206e6f74206120737570706f7274656420636f6e747261637400006044820152606401610930565b6114fe823383611cd6565b61150882826120fc565b6001600160a01b0382166000908152600b6020526040812080548392906115309084906128dc565b9091555033905060405163543746b160e01b81526001600160a01b03848116600483015260248201849052919091169063543746b190604401600060405180830381600087803b15801561158357600080fd5b505af1158015611597573d6000803e3d6000fd5b505050505050565b60006115ae6201518083612816565b905060016115bf6201518082612816565b6115c991906128c9565b81116116175760405162461bcd60e51b815260206004820152601960248201527f4352616e6b3a205465726d206c657373207468616e206d696e000000000000006044820152606401610930565b61161f611f52565b61162a9060016128dc565b81106116875760405162461bcd60e51b815260206004820152602660248201527f4352616e6b3a205465726d206d6f7265207468616e2063757272656e74206d6160448201526578207465726d60d01b6064820152608401610930565b33600090815260096020526040902060030154156116e75760405162461bcd60e51b815260206004820152601f60248201527f4352616e6b3a204d696e7420616c726561647920696e2070726f6772657373006044820152606401610930565b60006040518060c001604052806116fb3390565b6001600160a01b031681526020810185905260400161171a84426128dc565b8152602001600554815260200161172f6122d7565b815260200161173c612226565b9052336000908152600960209081526040808320845181546001600160a01b0319166001600160a01b039091161781559184015160018301558301516002820155606083015160038201556080830151600482015560a083015160059091015560068054929350906117ad83612928565b91905055506117b93390565b6001600160a01b03167fe9149e1b5059238baed02fa659dbf4bd932fbcf760a431330df4d934bc942f3784600560008154809291906117f790612928565b909155506040805192835260208301919091520160405180910390a2505050565b60003381611826828661195c565b9050838110156118865760405162461bcd60e51b815260206004820152602560248201527f45524332303a2064656372656173656420616c6c6f77616e63652062656c6f77604482015264207a65726f60d81b6064820152608401610930565b610af382868684036119a0565b6000336107eb818585611d50565b6000806118b86118b0876123b3565b600f0b6123d1565b905060006118f46118c8856123b3565b6118eb6118d4886123b3565b6118eb6118e08b6123b3565b600f88900b906124b5565b600f0b906124b5565b905061191a6119126119076103e86123b3565b600f84900b906124f3565b600f0b61254a565b67ffffffffffffffff16925050505b949350505050565b60405180606001604052806025815260200161295b6025913981565b610805620151806103e8612816565b6001600160a01b03918216600090815260016020908152604080832093909416825291909152205490565b60016119966201518082612816565b61080591906128c9565b6001600160a01b038316611a025760405162461bcd60e51b8152602060048201526024808201527f45524332303a20617070726f76652066726f6d20746865207a65726f206164646044820152637265737360e01b6064820152608401610930565b6001600160a01b038216611a635760405162461bcd60e51b815260206004820152602260248201527f45524332303a20617070726f766520746f20746865207a65726f206164647265604482015261737360f01b6064820152608401610930565b6001600160a01b0383811660008181526001602090815260408083209487168084529482529182902085905590518481527f8c5be1e5ebec7d5bd14f71427d1e84f3dd0314c0f7b2291e5b200ac8c7c3b92591015b60405180910390a3505050565b600080611ad285426128c9565b90506000611adf82612566565b9050600073__$5a97bf73f7d898dd4c7b7ee560a16083e7$__636d5433e68a600554611b0b91906128c9565b6040516001600160e01b031960e084901b168152600481019190915260026024820152604401602060405180830381865af4158015611b4e573d6000803e3d6000fd5b505050506040513d601f19601f82011682018060405250810190611b729190612941565b90506000611b82866103e86128dc565b90506000611b9283898c856118a1565b90506064611ba085826128c9565b611baa9083612816565b611bb491906128a7565b9b9a5050505050505050505050565b6001600160a01b038216611c195760405162461bcd60e51b815260206004820152601f60248201527f45524332303a206d696e7420746f20746865207a65726f2061646472657373006044820152606401610930565b8060026000828254611c2b91906128dc565b90915550506001600160a01b038216600081815260208181526040808320805486019055518481527fddf252ad1be2c89b69c2b068fc378daa952ba7f163c4a11628f55a4df523b3ef910160405180910390a35050565b33600090815260096020526040812080546001600160a01b0319168155600181018290556002810182905560038101829055600481018290556005018190556006805491611ccf836128ef565b9190505550565b6000611ce2848461195c565b90506000198114611d4a5781811015611d3d5760405162461bcd60e51b815260206004820152601d60248201527f45524332303a20696e73756666696369656e7420616c6c6f77616e63650000006044820152606401610930565b611d4a84848484036119a0565b50505050565b6001600160a01b038316611db45760405162461bcd60e51b815260206004820152602560248201527f45524332303a207472616e736665722066726f6d20746865207a65726f206164604482015264647265737360d81b6064820152608401610930565b6001600160a01b038216611e165760405162461bcd60e51b815260206004820152602360248201527f45524332303a207472616e7366657220746f20746865207a65726f206164647260448201526265737360e81b6064820152608401610930565b6001600160a01b03831660009081526020819052604090205481811015611e8e5760405162461bcd60e51b815260206004820152602660248201527f45524332303a207472616e7366657220616d6f756e7420657863656564732062604482015265616c616e636560d01b6064820152608401610930565b6001600160a01b03848116600081815260208181526040808320878703905593871680835291849020805487019055925185815290927fddf252ad1be2c89b69c2b068fc378daa952ba7f163c4a11628f55a4df523b3ef910160405180910390a3611d4a565b600082421115611f4757600061016d611f0d8685612816565b611f1a90620f4240612816565b611f2491906128a7565b90506305f5e100611f358288612816565b611f3f91906128a7565b915050611929565b506000949350505050565b6000611388600554111561204b576000611f80611912611f72600f6123b3565b6118eb6118b06005546123b3565b67ffffffffffffffff1690506000611f9b6201518083612816565b611fa9620151806064612816565b611fb391906128dc565b905073__$5a97bf73f7d898dd4c7b7ee560a16083e7$__637ae2b5c782611fdf620151806103e8612816565b6040516001600160e01b031960e085901b16815260048101929092526024820152604401602060405180830381865af4158015612020573d6000803e3d6000fd5b505050506040513d601f19601f820116820180604052508101906120449190612941565b9250505090565b610c7e620151806064612816565b604051806080016040528082815260200162015180836120799190612816565b61208390426128dc565b815260200183815260200161209661226a565b9052336000908152600a6020908152604080832084518155918401516001830155830151600282015560609092015160039092019190915560078054916120dc83612928565b919050555081600860008282546120f391906128dc565b90915550505050565b6001600160a01b03821661215c5760405162461bcd60e51b815260206004820152602160248201527f45524332303a206275726e2066726f6d20746865207a65726f206164647265736044820152607360f81b6064820152608401610930565b6001600160a01b038216600090815260208190526040902054818110156121d05760405162461bcd60e51b815260206004820152602260248201527f45524332303a206275726e20616d6f756e7420657863656564732062616c616e604482015261636560f01b6064820152608401610930565b6001600160a01b0383166000818152602081815260408083208686039055600280548790039055518581529192917fddf252ad1be2c89b69c2b068fc378daa952ba7f163c4a11628f55a4df523b3ef9101611ab8565b600080620186a0600554600161223c9190612816565b61224691906128a7565b9050606481111561225957600091505090565b6122648160646128c9565b91505090565b60008061227b605a62015180612816565b6122a57f0000000000000000000000000000000000000000000000000000000000000000426128c9565b6122af91906128a7565b9050806122be600260146128c9565b10156122cc57600291505090565b6122648160146128c9565b600080620151806123087f0000000000000000000000000000000000000000000000000000000000000000426128c9565b61231291906128a7565b9050610bb88110156123ab5773__$5a97bf73f7d898dd4c7b7ee560a16083e7$__636d5433e661234483610bb86128c9565b6040516001600160e01b031960e084901b168152600481019190915260016024820152604401602060405180830381865af4158015612387573d6000803e3d6000fd5b505050506040513d601f19601f820116820180604052508101906122649190612941565b600191505090565b6000677fffffffffffffff8211156123ca57600080fd5b5060401b90565b60008082600f0b136123e257600080fd5b6000600f83900b680100000000000000008112612401576040918201911d5b6401000000008112612415576020918201911d5b620100008112612427576010918201911d5b6101008112612438576008918201911d5b60108112612448576004918201911d5b60048112612458576002918201911d5b60028112612467576001820191505b603f19820160401b600f85900b607f8490031b6780000000000000005b60008113156124aa5790800260ff81901c8281029390930192607f011c9060011d612484565b509095945050505050565b6000600f83810b9083900b0260401d60016001607f1b031981128015906124e3575060016001607f1b038113155b6124ec57600080fd5b9392505050565b600081600f0b60000361250557600080fd5b600082600f0b604085600f0b901b8161252057612520612891565b05905060016001607f1b031981128015906124e3575060016001607f1b038113156124ec57600080fd5b60008082600f0b121561255c57600080fd5b50600f0b60401d90565b60008061257662015180846128a7565b9050612584600160076128c9565b8111156125945750606392915050565b6000600160076125a58460036128dc565b6001901b6125b391906128a7565b6125bd91906128c9565b604051637ae2b5c760e01b8152600481018290526063602482015290915073__$5a97bf73f7d898dd4c7b7ee560a16083e7$__90637ae2b5c790604401602060405180830381865af4158015612617573d6000803e3d6000fd5b505050506040513d601f19601f820116820180604052508101906119299190612941565b600060208083528351808285015260005b818110156126685785810183015185820160400152820161264c565b506000604082860101526040601f19601f8301168501019250505092915050565b80356001600160a01b03811681146126a057600080fd5b919050565b600080604083850312156126b857600080fd5b6126c183612689565b946020939093013593505050565b6000806000606084860312156126e457600080fd5b6126ed84612689565b92506126fb60208501612689565b9150604084013590509250925092565b6000806040838503121561271e57600080fd5b50508035926020909101359150565b60006020828403121561273f57600080fd5b6124ec82612689565b60006020828403121561275a57600080fd5b5035919050565b6000806000806080858703121561277757600080fd5b5050823594602084013594506040840135936060013592509050565b600080604083850312156127a657600080fd5b6127af83612689565b91506127bd60208401612689565b90509250929050565b600181811c908216806127da57607f821691505b6020821081036127fa57634e487b7160e01b600052602260045260246000fd5b50919050565b634e487b7160e01b600052601160045260246000fd5b80820281158282048414176107f1576107f1612800565b6020808252601590820152744352616e6b3a204e6f206d696e742065786973747360581b604082015260600190565b6020808252818101527f4352616e6b3a204d696e74206d61747572697479206e6f742072656163686564604082015260600190565b634e487b7160e01b600052601260045260246000fd5b6000826128c457634e487b7160e01b600052601260045260246000fd5b500490565b818103818111156107f1576107f1612800565b808201808211156107f1576107f1612800565b6000816128fe576128fe612800565b506000190190565b60006020828403121561291857600080fd5b815180151581146124ec57600080fd5b60006001820161293a5761293a612800565b5060010190565b60006020828403121561295357600080fd5b505191905056fe404d724a61636b4c6576696e20406c62656c79616576206661697263727970746f2e6f7267a264697066735822122023c5ad9691b837b6ffcb7e7e7eb5d6bd39d244b7191e6fbb735d3feecece6c4c64736f6c63430008110033",
  "linkReferences": {
    "contracts/XEN-crypto/Math.sol": {
      "Math": [
        {
          "length": 20,
          "start": 7427
        },
        {
          "length": 20,
          "start": 8661
        },
        {
          "length": 20,
          "start": 9534
        },
        {
          "length": 20,
          "start": 10235
        }
      ]
    }
  },
  "deployedLinkReferences": {
    "contracts/XEN-crypto/Math.sol": {
      "Math": [
        {
          "length": 20,
          "start": 6885
        },
        {
          "length": 20,
          "start": 8119
        },
        {
          "length": 20,
          "start": 8992
        },
        {
          "length": 20,
          "start": 9693
        }
      ]
    }
  }
}