{
  "_format": "hh-sol-artifact-1",
  "contractName": "XENFactoryUpgradeable",
  "sourceName": "contracts/XEN-batch/XENFactoryUpgradeable.sol",
  "abi": [
    {
      "anonymous": false,
      "inputs": [
        {
          "indexed": false,
          "internalType": "uint8",
          "name": "version",
          "type": "uint8"
        }
      ],
      "name": "Initialized",
      "type": "event"
    },
    {
      "anonymous": false,
      "inputs": [
        {
          "indexed": true,
          "internalType": "address",
          "name": "previousOwner",
          "type": "address"
        },
        {
          "indexed": true,
          "internalType": "address",
          "name": "newOwner",
          "type": "address"
        }
      ],
      "name": "OwnershipTransferred",
      "type": "event"
    },
    {
      "inputs": [
        {
          "internalType": "uint256[]",
          "name": "ids",
          "type": "uint256[]"
        }
      ],
      "name": "batchClaim",
      "outputs": [],
      "stateMutability": "nonpayable",
      "type": "function"
    },
    {
      "inputs": [
        {
          "internalType": "uint256[]",
          "name": "ids",
          "type": "uint256[]"
        },
        {
          "internalType": "uint256",
          "name": "term",
          "type": "uint256"
        }
      ],
      "name": "batchClaimAndMint",
      "outputs": [],
      "stateMutability": "nonpayable",
      "type": "function"
    },
    {
      "inputs": [
        {
          "internalType": "uint256",
          "name": "count",
          "type": "uint256"
        }
      ],
      "name": "batchCreateProxy",
      "outputs": [],
      "stateMutability": "nonpayable",
      "type": "function"
    },
    {
      "inputs": [
        {
          "internalType": "uint256",
          "name": "term",
          "type": "uint256"
        },
        {
          "internalType": "uint256",
          "name": "count",
          "type": "uint256"
        }
      ],
      "name": "batchMint",
      "outputs": [],
      "stateMutability": "nonpayable",
      "type": "function"
    },
    {
      "inputs": [
        {
          "internalType": "uint256[]",
          "name": "ids",
          "type": "uint256[]"
        },
        {
          "internalType": "uint256",
          "name": "term",
          "type": "uint256"
        }
      ],
      "name": "batchReuseMint",
      "outputs": [],
      "stateMutability": "nonpayable",
      "type": "function"
    },
    {
      "inputs": [],
      "name": "bytecodeHash",
      "outputs": [
        {
          "internalType": "bytes32",
          "name": "",
          "type": "bytes32"
        }
      ],
      "stateMutability": "view",
      "type": "function"
    },
    {
      "inputs": [
        {
          "internalType": "uint256[]",
          "name": "ids",
          "type": "uint256[]"
        }
      ],
      "name": "callKill",
      "outputs": [],
      "stateMutability": "nonpayable",
      "type": "function"
    },
    {
      "inputs": [
        {
          "internalType": "uint256[]",
          "name": "ids",
          "type": "uint256[]"
        }
      ],
      "name": "estimateBatchClaim",
      "outputs": [],
      "stateMutability": "nonpayable",
      "type": "function"
    },
    {
      "inputs": [
        {
          "internalType": "uint256[]",
          "name": "ids",
          "type": "uint256[]"
        },
        {
          "internalType": "uint256",
          "name": "term",
          "type": "uint256"
        }
      ],
      "name": "estimateBatchClaimAndMint",
      "outputs": [],
      "stateMutability": "nonpayable",
      "type": "function"
    },
    {
      "inputs": [
        {
          "internalType": "uint256",
          "name": "term",
          "type": "uint256"
        },
        {
          "internalType": "uint256",
          "name": "count",
          "type": "uint256"
        }
      ],
      "name": "estimateBatchMint",
      "outputs": [],
      "stateMutability": "nonpayable",
      "type": "function"
    },
    {
      "inputs": [
        {
          "internalType": "uint256[]",
          "name": "ids",
          "type": "uint256[]"
        },
        {
          "internalType": "uint256",
          "name": "term",
          "type": "uint256"
        }
      ],
      "name": "estimateBatchReuseMint",
      "outputs": [],
      "stateMutability": "nonpayable",
      "type": "function"
    },
    {
      "inputs": [],
      "name": "initialize",
      "outputs": [],
      "stateMutability": "nonpayable",
      "type": "function"
    },
    {
      "inputs": [],
      "name": "owner",
      "outputs": [
        {
          "internalType": "address",
          "name": "",
          "type": "address"
        }
      ],
      "stateMutability": "view",
      "type": "function"
    },
    {
      "inputs": [],
      "name": "proxyImplementation",
      "outputs": [
        {
          "internalType": "address",
          "name": "",
          "type": "address"
        }
      ],
      "stateMutability": "view",
      "type": "function"
    },
    {
      "inputs": [],
      "name": "renounceOwnership",
      "outputs": [],
      "stateMutability": "nonpayable",
      "type": "function"
    },
    {
      "inputs": [
        {
          "internalType": "address",
          "name": "_proxyImplementation",
          "type": "address"
        }
      ],
      "name": "setProxyImplementation",
      "outputs": [],
      "stateMutability": "nonpayable",
      "type": "function"
    },
    {
      "inputs": [
        {
          "internalType": "address",
          "name": "newOwner",
          "type": "address"
        }
      ],
      "name": "transferOwnership",
      "outputs": [],
      "stateMutability": "nonpayable",
      "type": "function"
    },
    {
      "inputs": [
        {
          "internalType": "address",
          "name": "",
          "type": "address"
        }
      ],
      "name": "userMintIndex",
      "outputs": [
        {
          "internalType": "uint256",
          "name": "",
          "type": "uint256"
        }
      ],
      "stateMutability": "view",
      "type": "function"
    }
  ],
  "bytecode": "0x608060405234801561001057600080fd5b506116f5806100206000396000f3fe608060405234801561001057600080fd5b50600436106101165760003560e01c806398f75fa0116100a2578063bc29278211610071578063bc2927821461022a578063e60850b21461023d578063ea0736d914610250578063f2fde38b14610263578063f3ae292a1461027657600080fd5b806398f75fa0146101de5780639fdcd3a4146101f1578063a235726314610204578063a6140d3b1461021757600080fd5b80636d37f313116100e95780636d37f31314610197578063715018a6146101aa5780638129fc1c146101b25780638aa44614146101ba5780638da5cb5b146101cd57600080fd5b80630c870f911461011b5780630ed64eff1461014b5780632c67484214610160578063420c6a2c1461018e575b600080fd5b60655461012e906001600160a01b031681565b6040516001600160a01b0390911681526020015b60405180910390f35b61015e61015936600461141b565b610289565b005b61018061016e36600461143d565b60676020526000908152604090205481565b604051908152602001610142565b61018060665481565b61015e6101a53660046114b9565b6103e1565b61015e610593565b61015e6105a7565b61015e6101c83660046114b9565b6106bd565b6033546001600160a01b031661012e565b61015e6101ec366004611505565b61082a565b61015e6101ff36600461143d565b610931565b61015e6102123660046114b9565b6109c8565b61015e61022536600461151e565b610b38565b61015e61023836600461151e565b610c9c565b61015e61024b36600461151e565b610e03565b61015e61025e36600461141b565b610f6e565b61015e61027136600461143d565b6110d4565b61015e6102843660046114b9565b61114a565b32331461029557600080fd5b6065546040516000916102dc916000805160206116a08339815191529160601b6001600160601b031916906e5af43d82803e903d91602b57fd5bf360881b90602001611560565b604051602081830303815290604052905060008360405160240161030291815260200190565b60408051601f19818403018152918152602080830180516001600160e01b031662dda08b60e11b1790523360009081526067909152908120549192509061034a906001611598565b905060006103588583611598565b9050815b818110156103b457600033826040516020016103799291906115bf565b604051602081830303815290604052805190602001209050808651602088016000f56000808751602089016000855af150505060010161035c565b5033600090815260676020526040812080548792906103d4908490611598565b9091555050505050505050565b3233146103ed57600080fd5b606554604051600091610434916000805160206116a08339815191529160601b6001600160601b031916906e5af43d82803e903d91602b57fd5bf360881b90602001611560565b60408051601f1981840301815290829052610451916020016115dc565b60408051601f19818403018152908290528051602090910120336024830152915060009060440160408051601f198184030181529181526020820180516001600160e01b031663218447d360e21b179052516024810185905290915060009060440160408051601f198184030181529190526020810180516001600160e01b031662dda08b60e11b17905290508460005b81811015610589576000338989848181106104ff576104ff61160b565b905060200201356040516020016105179291906115bf565b604051602081830303815290604052805190602001209050600030828860405160200161054693929190611621565b6040516020818303038152906040528051906020012060001c90506000808751602089016000855af1506000808651602088016000855af15050506001016104e2565b5050505050505050565b61059b611315565b6105a5600061136f565b565b600054610100900460ff16158080156105c75750600054600160ff909116105b806105e15750303b1580156105e1575060005460ff166001145b6106495760405162461bcd60e51b815260206004820152602e60248201527f496e697469616c697a61626c653a20636f6e747261637420697320616c72656160448201526d191e481a5b9a5d1a585b1a5e995960921b60648201526084015b60405180910390fd5b6000805460ff19166001179055801561066c576000805461ff0019166101001790555b6106746113c1565b80156106ba576000805461ff0019169055604051600181527f7f26b83ff96e1f2b6a682f133852f6798a09c465da95921460cefb38474024989060200160405180910390a15b50565b3233146106c957600080fd5b606554604051600091610710916000805160206116a08339815191529160601b6001600160601b031916906e5af43d82803e903d91602b57fd5bf360881b90602001611560565b60408051601f198184030181529082905261072d916020016115dc565b60405160208183030381529060405280519060200120905060008260405160240161075a91815260200190565b60408051601f198184030181529190526020810180516001600160e01b031662dda08b60e11b17905290508360005b81811015610821576000338888848181106107a6576107a661160b565b905060200201356040516020016107be9291906115bf565b60405160208183030381529060405280519060200120905060003082876040516020016107ed93929190611621565b6040516020818303038152906040528051906020012060001c90506000808651602088016000855af1505050600101610789565b50505050505050565b32331461083657600080fd5b60655460405160009161087d916000805160206116a08339815191529160601b6001600160601b031916906e5af43d82803e903d91602b57fd5bf360881b90602001611560565b60408051601f19818403018152918152336000908152606760205290812054919250906108ab906001611598565b905060006108b98483611598565b9050815b8181101561090657600033826040516020016108da9291906115bf565b604051602081830303815290604052805190602001209050808551602087016000f550506001016108bd565b503360009081526067602052604081208054869290610926908490611598565b909155505050505050565b610939611315565b606580546001600160a01b0319166001600160a01b03831617905560405161098d906000805160206116a083398151915290606084901b906e5af43d82803e903d91602b57fd5bf360881b90602001611560565b60408051601f19818403018152908290526109aa916020016115dc565b60408051601f19818403018152919052805160209091012060665550565b3233146109d457600080fd5b606554604051600091610a1b916000805160206116a08339815191529160601b6001600160601b031916906e5af43d82803e903d91602b57fd5bf360881b90602001611560565b60408051601f1981840301815290829052610a38916020016115dc565b604051602081830303815290604052805190602001209050600082604051602401610a6591815260200190565b60408051601f198184030181529190526020810180516001600160e01b031662dda08b60e11b1790529050836000805b8281101561058957600033898984818110610ab257610ab261160b565b90506020020135604051602001610aca9291906115bf565b6040516020818303038152906040528051906020012090506000308288604051602001610af993929190611621565b6040516020818303038152906040528051906020012060001c90506000808751602089016000855af1935083610b2e57600080fd5b5050600101610a95565b323314610b4457600080fd5b606554604051600091610b8b916000805160206116a08339815191529160601b6001600160601b031916906e5af43d82803e903d91602b57fd5bf360881b90602001611560565b60408051601f1981840301815290829052610ba8916020016115dc565b60408051601f19818403018152908290528051602090910120336024830152915060009060440160408051601f198184030181529190526020810180516001600160e01b031662f55d9d60e01b179052905060005b83811015610c9557600033868684818110610c1a57610c1a61160b565b90506020020135604051602001610c329291906115bf565b6040516020818303038152906040528051906020012090506000308286604051602001610c6193929190611621565b6040516020818303038152906040528051906020012060001c90506000808551602087016000855af1505050600101610bfd565b5050505050565b323314610ca857600080fd5b606554604051600091610cef916000805160206116a08339815191529160601b6001600160601b031916906e5af43d82803e903d91602b57fd5bf360881b90602001611560565b60408051601f1981840301815290829052610d0c916020016115dc565b60408051601f19818403018152908290528051602090910120336024830152915060009060440160408051601f198184030181529190526020810180516001600160e01b031663218447d360e21b17905290508260005b81811015610dfb57600033878784818110610d8057610d8061160b565b90506020020135604051602001610d989291906115bf565b6040516020818303038152906040528051906020012090506000308287604051602001610dc793929190611621565b6040516020818303038152906040528051906020012060001c90506000808651602088016000855af1505050600101610d63565b505050505050565b323314610e0f57600080fd5b606554604051600091610e56916000805160206116a08339815191529160601b6001600160601b031916906e5af43d82803e903d91602b57fd5bf360881b90602001611560565b60408051601f1981840301815290829052610e73916020016115dc565b60408051601f19818403018152908290528051602090910120336024830152915060009060440160408051601f198184030181529190526020810180516001600160e01b031663218447d360e21b1790529050826000805b8281101561082157600033888884818110610ee857610ee861160b565b90506020020135604051602001610f009291906115bf565b6040516020818303038152906040528051906020012090506000308288604051602001610f2f93929190611621565b6040516020818303038152906040528051906020012060001c90506000808751602089016000855af1935083610f6457600080fd5b5050600101610ecb565b323314610f7a57600080fd5b606554604051600091610fc1916000805160206116a08339815191529160601b6001600160601b031916906e5af43d82803e903d91602b57fd5bf360881b90602001611560565b6040516020818303038152906040529050600083604051602401610fe791815260200190565b60408051601f19818403018152918152602080830180516001600160e01b031662dda08b60e11b1790523360009081526067909152908120549192509061102f906001611598565b9050600061103d8583611598565b90506000825b828110156110a657600033826040516020016110609291906115bf565b604051602081830303815290604052805190602001209050808751602089016000f5600080885160208a016000855af19350508261109d57600080fd5b50600101611043565b5033600090815260676020526040812080548892906110c6908490611598565b909155505050505050505050565b6110dc611315565b6001600160a01b0381166111415760405162461bcd60e51b815260206004820152602660248201527f4f776e61626c653a206e6577206f776e657220697320746865207a65726f206160448201526564647265737360d01b6064820152608401610640565b6106ba8161136f565b32331461115657600080fd5b60655460405160009161119d916000805160206116a08339815191529160601b6001600160601b031916906e5af43d82803e903d91602b57fd5bf360881b90602001611560565b60408051601f19818403018152908290526111ba916020016115dc565b60408051601f19818403018152908290528051602090910120336024830152915060009060440160408051601f198184030181529181526020820180516001600160e01b031663218447d360e21b179052516024810185905290915060009060440160408051601f198184030181529190526020810180516001600160e01b031662dda08b60e11b179052905084600080805b83811015611309576000338b8b8481811061126a5761126a61160b565b905060200201356040516020016112829291906115bf565b604051602081830303815290604052805190602001209050600030828a6040516020016112b193929190611621565b6040516020818303038152906040528051906020012060001c9050600080895160208b016000855af19450600080885160208a016000855af193508480156112f65750835b6112ff57600080fd5b505060010161124d565b50505050505050505050565b6033546001600160a01b031633146105a55760405162461bcd60e51b815260206004820181905260248201527f4f776e61626c653a2063616c6c6572206973206e6f7420746865206f776e65726044820152606401610640565b603380546001600160a01b038381166001600160a01b0319831681179093556040519116919082907f8be0079c531659141344cd1fd0a4f28419497f9722a3daafe3b4186f6b6457e090600090a35050565b600054610100900460ff166113e85760405162461bcd60e51b815260040161064090611654565b6105a5600054610100900460ff166114125760405162461bcd60e51b815260040161064090611654565b6105a53361136f565b6000806040838503121561142e57600080fd5b50508035926020909101359150565b60006020828403121561144f57600080fd5b81356001600160a01b038116811461146657600080fd5b9392505050565b60008083601f84011261147f57600080fd5b50813567ffffffffffffffff81111561149757600080fd5b6020830191508360208260051b85010111156114b257600080fd5b9250929050565b6000806000604084860312156114ce57600080fd5b833567ffffffffffffffff8111156114e557600080fd5b6114f18682870161146d565b909790965060209590950135949350505050565b60006020828403121561151757600080fd5b5035919050565b6000806020838503121561153157600080fd5b823567ffffffffffffffff81111561154857600080fd5b6115548582860161146d565b90969095509350505050565b6001600160601b0319938416815291909216601482015270ffffffffffffffffffffffffffffffffff19909116602882015260370190565b808201808211156115b957634e487b7160e01b600052601160045260246000fd5b92915050565b60609290921b6001600160601b0319168252601482015260340190565b6000825160005b818110156115fd57602081860181015185830152016115e3565b506000920191825250919050565b634e487b7160e01b600052603260045260246000fd5b6001600160f81b0319815260609390931b6001600160601b03191660018401526015830191909152603582015260550190565b6020808252602b908201527f496e697469616c697a61626c653a20636f6e7472616374206973206e6f74206960408201526a6e697469616c697a696e6760a81b60608201526080019056fe3d602d80600a3d3981f3363d3d373d3d3d363d73000000000000000000000000a264697066735822122090c74da359d26f46f94e910e38e36d2bf2dcfd4a208eee40a48ffa5a185b0e6e64736f6c63430008110033",
  "linkReferences": {},
  "deployedLinkReferences": {}
}