{
  "_format": "hh-sol-artifact-1",
  "contractName": "XenFactory",
  "sourceName": "contracts/XenFactory/XenFactory.sol",
  "abi": [
    {
      "inputs": [],
      "name": "MINI_PROXY",
      "outputs": [
        {
          "internalType": "address",
          "name": "",
          "type": "address"
        }
      ],
      "stateMutability": "view",
      "type": "function"
    },
    {
      "inputs": [
        {
          "internalType": "uint256[]",
          "name": "ids",
          "type": "uint256[]"
        }
      ],
      "name": "multiClaim",
      "outputs": [],
      "stateMutability": "nonpayable",
      "type": "function"
    },
    {
      "inputs": [
        {
          "internalType": "uint256",
          "name": "term",
          "type": "uint256"
        },
        {
          "internalType": "uint256",
          "name": "count",
          "type": "uint256"
        }
      ],
      "name": "multiMint",
      "outputs": [],
      "stateMutability": "nonpayable",
      "type": "function"
    },
    {
      "inputs": [
        {
          "internalType": "uint256[]",
          "name": "ids",
          "type": "uint256[]"
        },
        {
          "internalType": "uint256",
          "name": "term",
          "type": "uint256"
        }
      ],
      "name": "multiReuseMint",
      "outputs": [],
      "stateMutability": "nonpayable",
      "type": "function"
    },
    {
      "inputs": [
        {
          "internalType": "address",
          "name": "",
          "type": "address"
        }
      ],
      "name": "userMintIndex",
      "outputs": [
        {
          "internalType": "uint256",
          "name": "",
          "type": "uint256"
        }
      ],
      "stateMutability": "view",
      "type": "function"
    }
  ],
  "bytecode": "0x608060405234801561001057600080fd5b50610901806100206000396000f3fe608060405234801561001057600080fd5b50600436106100575760003560e01c80631fc220271461005c5780632c674842146100715780634ed73d28146100a45780637b130205146100b7578063850b7848146100ea575b600080fd5b61006f61006a366004610682565b6100fd565b005b61009161007f3660046106a4565b60006020819052908152604090205481565b6040519081526020015b60405180910390f35b61006f6100b2366004610720565b610312565b6100d2733176a1200b2c00f50e3c648597508cb784ae021f81565b6040516001600160a01b03909116815260200161009b565b61006f6100f8366004610762565b6104aa565b3233146101255760405162461bcd60e51b815260040161011c906107ae565b60405180910390fd5b600081116101655760405162461bcd60e51b815260206004820152600d60248201526c125b9d985b1a590818dbdd5b9d609a1b604482015260640161011c565b600082116101a45760405162461bcd60e51b815260206004820152600c60248201526b496e76616c6964207465726d60a01b604482015260640161011c565b6040516000906101fc90733d602d80600a3d3981f3363d3d373d3d3d363d7360601b90733176a1200b2c00f50e3c648597508cb784ae021f60601b906e5af43d82803e903d91602b57fd5bf360881b906020016107d7565b60408051601f198184030181529181523360009081526020819052908120549192509061022a90600161080f565b3360009081526020819052604081208054929350859290919061024e90849061080f565b9091555060009050815b61026385600161080f565b81101561030a576000338260405160200161027f929190610836565b604051602081830303815290604052805190602001209050808551602087016000f560405162dda08b60e11b8152600481018990529093506001600160a01b038416906301bb411690602401600060405180830381600087803b1580156102e557600080fd5b505af11580156102f9573d6000803e3d6000fd5b505060019093019250610258915050565b505050505050565b3233146103315760405162461bcd60e51b815260040161011c906107ae565b60405160009061038990733d602d80600a3d3981f3363d3d373d3d3d363d7360601b90733176a1200b2c00f50e3c648597508cb784ae021f60601b906e5af43d82803e903d91602b57fd5bf360881b906020016107d7565b60408051601f19818403018152908290526103a691602001610853565b60405160208183030381529060405280519060200120905060005b828110156104a4576000338585848181106103de576103de610882565b905060200201356040516020016103f6929190610836565b604051602081830303815290604052805190602001209050600030828560405160200161042593929190610898565b60408051808303601f19018152908290528051602090910120637ec7afaf60e01b825233600483015291506001600160a01b03821690637ec7afaf90602401600060405180830381600087803b15801561047e57600080fd5b505af1158015610492573d6000803e3d6000fd5b5050600190940193506103c192505050565b50505050565b3233146104c95760405162461bcd60e51b815260040161011c906107ae565b600081116105085760405162461bcd60e51b815260206004820152600c60248201526b496e76616c6964207465726d60a01b604482015260640161011c565b60405160009061056090733d602d80600a3d3981f3363d3d373d3d3d363d7360601b90733176a1200b2c00f50e3c648597508cb784ae021f60601b906e5af43d82803e903d91602b57fd5bf360881b906020016107d7565b60408051601f198184030181529082905261057d91602001610853565b60405160208183030381529060405280519060200120905060005b8381101561067b576000338686848181106105b5576105b5610882565b905060200201356040516020016105cd929190610836565b60405160208183030381529060405280519060200120905060003082856040516020016105fc93929190610898565b60408051808303601f1901815290829052805160209091012062dda08b60e11b82526004820187905291506001600160a01b038216906301bb411690602401600060405180830381600087803b15801561065557600080fd5b505af1158015610669573d6000803e3d6000fd5b50506001909401935061059892505050565b5050505050565b6000806040838503121561069557600080fd5b50508035926020909101359150565b6000602082840312156106b657600080fd5b81356001600160a01b03811681146106cd57600080fd5b9392505050565b60008083601f8401126106e657600080fd5b50813567ffffffffffffffff8111156106fe57600080fd5b6020830191508360208260051b850101111561071957600080fd5b9250929050565b6000806020838503121561073357600080fd5b823567ffffffffffffffff81111561074a57600080fd5b610756858286016106d4565b90969095509350505050565b60008060006040848603121561077757600080fd5b833567ffffffffffffffff81111561078e57600080fd5b61079a868287016106d4565b909790965060209590950135949350505050565b6020808252600f908201526e4572726f723a204f6e6c7920454f4160881b604082015260600190565b6001600160601b0319938416815291909216601482015270ffffffffffffffffffffffffffffffffff19909116602882015260370190565b8082018082111561083057634e487b7160e01b600052601160045260246000fd5b92915050565b60609290921b6001600160601b0319168252601482015260340190565b6000825160005b81811015610874576020818601810151858301520161085a565b506000920191825250919050565b634e487b7160e01b600052603260045260246000fd5b6001600160f81b0319815260609390931b6001600160601b0319166001840152601583019190915260358201526055019056fea264697066735822122057b4d459638c8e35023c209ec9b62d5ebe5e3924610518fe143e737152826b1064736f6c63430008110033",
  "linkReferences": {},
  "deployedLinkReferences": {}
}