{
  "_format": "hh-sol-artifact-1",
  "contractName": "XENFactoryUpgradeable",
  "sourceName": "contracts/XEN-batch/XENFactoryUpgradeable.sol",
  "abi": [
    {
      "anonymous": false,
      "inputs": [
        {
          "indexed": false,
          "internalType": "uint8",
          "name": "version",
          "type": "uint8"
        }
      ],
      "name": "Initialized",
      "type": "event"
    },
    {
      "anonymous": false,
      "inputs": [
        {
          "indexed": true,
          "internalType": "address",
          "name": "previousOwner",
          "type": "address"
        },
        {
          "indexed": true,
          "internalType": "address",
          "name": "newOwner",
          "type": "address"
        }
      ],
      "name": "OwnershipTransferred",
      "type": "event"
    },
    {
      "inputs": [
        {
          "internalType": "uint256[]",
          "name": "ids",
          "type": "uint256[]"
        }
      ],
      "name": "batchClaim",
      "outputs": [],
      "stateMutability": "nonpayable",
      "type": "function"
    },
    {
      "inputs": [
        {
          "internalType": "uint256[]",
          "name": "ids",
          "type": "uint256[]"
        },
        {
          "internalType": "uint256",
          "name": "term",
          "type": "uint256"
        }
      ],
      "name": "batchClaimAndMint",
      "outputs": [],
      "stateMutability": "nonpayable",
      "type": "function"
    },
    {
      "inputs": [
        {
          "internalType": "uint256",
          "name": "count",
          "type": "uint256"
        }
      ],
      "name": "batchCreateProxy",
      "outputs": [],
      "stateMutability": "nonpayable",
      "type": "function"
    },
    {
      "inputs": [
        {
          "internalType": "uint256",
          "name": "term",
          "type": "uint256"
        },
        {
          "internalType": "uint256",
          "name": "count",
          "type": "uint256"
        }
      ],
      "name": "batchMint",
      "outputs": [],
      "stateMutability": "nonpayable",
      "type": "function"
    },
    {
      "inputs": [
        {
          "internalType": "uint256[]",
          "name": "ids",
          "type": "uint256[]"
        },
        {
          "internalType": "uint256",
          "name": "term",
          "type": "uint256"
        }
      ],
      "name": "batchReuseMint",
      "outputs": [],
      "stateMutability": "nonpayable",
      "type": "function"
    },
    {
      "inputs": [],
      "name": "bytecodeHash",
      "outputs": [
        {
          "internalType": "bytes32",
          "name": "",
          "type": "bytes32"
        }
      ],
      "stateMutability": "view",
      "type": "function"
    },
    {
      "inputs": [
        {
          "internalType": "uint256[]",
          "name": "ids",
          "type": "uint256[]"
        }
      ],
      "name": "callKill",
      "outputs": [],
      "stateMutability": "nonpayable",
      "type": "function"
    },
    {
      "inputs": [],
      "name": "initialize",
      "outputs": [],
      "stateMutability": "nonpayable",
      "type": "function"
    },
    {
      "inputs": [],
      "name": "owner",
      "outputs": [
        {
          "internalType": "address",
          "name": "",
          "type": "address"
        }
      ],
      "stateMutability": "view",
      "type": "function"
    },
    {
      "inputs": [],
      "name": "proxyImplementation",
      "outputs": [
        {
          "internalType": "address",
          "name": "",
          "type": "address"
        }
      ],
      "stateMutability": "view",
      "type": "function"
    },
    {
      "inputs": [],
      "name": "renounceOwnership",
      "outputs": [],
      "stateMutability": "nonpayable",
      "type": "function"
    },
    {
      "inputs": [
        {
          "internalType": "address",
          "name": "_proxyImplementation",
          "type": "address"
        }
      ],
      "name": "setProxyImplementation",
      "outputs": [],
      "stateMutability": "nonpayable",
      "type": "function"
    },
    {
      "inputs": [
        {
          "internalType": "address",
          "name": "newOwner",
          "type": "address"
        }
      ],
      "name": "transferOwnership",
      "outputs": [],
      "stateMutability": "nonpayable",
      "type": "function"
    },
    {
      "inputs": [
        {
          "internalType": "address",
          "name": "",
          "type": "address"
        }
      ],
      "name": "userMintIndex",
      "outputs": [
        {
          "internalType": "uint256",
          "name": "",
          "type": "uint256"
        }
      ],
      "stateMutability": "view",
      "type": "function"
    }
  ],
  "bytecode": "0x608060405234801561001057600080fd5b5061117f806100206000396000f3fe608060405234801561001057600080fd5b50600436106100ea5760003560e01c80638aa446141161008c5780639fdcd3a4116100665780639fdcd3a4146101c5578063a6140d3b146101d8578063bc292782146101eb578063f2fde38b146101fe57600080fd5b80638aa446141461018e5780638da5cb5b146101a157806398f75fa0146101b257600080fd5b8063420c6a2c116100c8578063420c6a2c146101625780636d37f3131461016b578063715018a61461017e5780638129fc1c1461018657600080fd5b80630c870f91146100ef5780630ed64eff1461011f5780632c67484214610134575b600080fd5b606654610102906001600160a01b031681565b6040516001600160a01b0390911681526020015b60405180910390f35b61013261012d366004610e9c565b610211565b005b610154610142366004610ebe565b60676020526000908152604090205481565b604051908152602001610116565b61015460655481565b610132610179366004610f3a565b6103a0565b6101326105af565b6101326105c3565b61013261019c366004610f3a565b6106d4565b6033546001600160a01b0316610102565b6101326101c0366004610f86565b610892565b6101326101d3366004610ebe565b61099a565b6101326101e6366004610f9f565b610a3a565b6101326101f9366004610f9f565b610bb9565b61013261020c366004610ebe565b610d20565b3233146102505760405162461bcd60e51b81526020600482015260086024820152674f6e6c7920454f4160c01b60448201526064015b60405180910390fd5b6066546040516000916102a091733d602d80600a3d3981f3363d3d373d3d3d363d7360601b9160601b6001600160601b031916906e5af43d82803e903d91602b57fd5bf360881b90602001610fe1565b60405160208183030381529060405290506000836040516024016102c691815260200190565b60408051601f19818403018152918152602080830180516001600160e01b031662dda08b60e11b1790523360009081526067909152908120549192509061030e906001611019565b90505b61031b8482611019565b8110156103755760003382604051602001610337929190611040565b604051602081830303815290604052805190602001209050808451602086016000f56000808551602087016000855af1505081600101915050610311565b3360009081526067602052604081208054869290610394908490611019565b90915550505050505050565b3233146103bf5760405162461bcd60e51b81526004016102479061105d565b600081116104005760405162461bcd60e51b815260206004820152600e60248201526d496e76616c696420506172616d7360901b6044820152606401610247565b60665460405160009161045091733d602d80600a3d3981f3363d3d373d3d3d363d7360601b9160601b6001600160601b031916906e5af43d82803e903d91602b57fd5bf360881b90602001610fe1565b60408051601f198184030181529082905261046d91602001611086565b60405160208183030381529060405280519060200120905060005b838110156105a8576000338686848181106104a5576104a56110b5565b905060200201356040516020016104bd929190611040565b60405160208183030381529060405280519060200120905060003082856040516020016104ec939291906110cb565b60408051601f19818403018152908290528051602090910120336024830152915060009060440160408051601f198184030181529181526020820180516001600160e01b031663218447d360e21b179052516024810188905290915060009060440160408051601f19818403018152919052602080820180516001600160e01b031662dda08b60e11b17905283519192506000918291850182875af1506000808251602084016000875af1505060019093019250610488915050565b5050505050565b6105b7610d96565b6105c16000610df0565b565b600054610100900460ff16158080156105e35750600054600160ff909116105b806105fd5750303b1580156105fd575060005460ff166001145b6106605760405162461bcd60e51b815260206004820152602e60248201527f496e697469616c697a61626c653a20636f6e747261637420697320616c72656160448201526d191e481a5b9a5d1a585b1a5e995960921b6064820152608401610247565b6000805460ff191660011790558015610683576000805461ff0019166101001790555b61068b610e42565b80156106d1576000805461ff0019169055604051600181527f7f26b83ff96e1f2b6a682f133852f6798a09c465da95921460cefb38474024989060200160405180910390a15b50565b3233146106f35760405162461bcd60e51b81526004016102479061105d565b81158015906107025750600081115b61073f5760405162461bcd60e51b815260206004820152600e60248201526d496e76616c696420506172616d7360901b6044820152606401610247565b60665460405160009161078f91733d602d80600a3d3981f3363d3d373d3d3d363d7360601b9160601b6001600160601b031916906e5af43d82803e903d91602b57fd5bf360881b90602001610fe1565b60408051601f19818403018152908290526107ac91602001611086565b60405160208183030381529060405280519060200120905060005b838110156105a8576000338686848181106107e4576107e46110b5565b905060200201356040516020016107fc929190611040565b604051602081830303815290604052805190602001209050600030828560405160200161082b939291906110cb565b60408051601f19818403018152828252805160209182012060248085018a9052835180860390910181526044909401909252820180516001600160e01b031662dda08b60e11b1781528251919350600091829182865af15050600190920191506107c79050565b32331461089e57600080fd5b6066546040516000916108ee91733d602d80600a3d3981f3363d3d373d3d3d363d7360601b9160601b6001600160601b031916906e5af43d82803e903d91602b57fd5bf360881b90602001610fe1565b60408051601f198184030181529181523360009081526067602052908120549192509061091c906001611019565b90505b6109298382611019565b8110156109715760003382604051602001610945929190611040565b604051602081830303815290604052805190602001209050808351602085016000f5505060010161091f565b3360009081526067602052604081208054859290610990908490611019565b9091555050505050565b6109a2610d96565b606680546001600160a01b0319166001600160a01b0383161790556040516109ff90733d602d80600a3d3981f3363d3d373d3d3d363d7360601b90606084901b906e5af43d82803e903d91602b57fd5bf360881b90602001610fe1565b60408051601f1981840301815290829052610a1c91602001611086565b60408051601f19818403018152919052805160209091012060655550565b323314610a595760405162461bcd60e51b81526004016102479061105d565b606654604051600091610aa991733d602d80600a3d3981f3363d3d373d3d3d363d7360601b9160601b6001600160601b031916906e5af43d82803e903d91602b57fd5bf360881b90602001610fe1565b60408051601f1981840301815290829052610ac691602001611086565b60405160208183030381529060405280519060200120905060005b82811015610bb357600033858584818110610afe57610afe6110b5565b90506020020135604051602001610b16929190611040565b6040516020818303038152906040528051906020012090506000308285604051602001610b45939291906110cb565b60408051601f19818403018152908290528051602090910120336024830152915060009060440160408051601f198184030181529190526020810180516001600160e01b031662f55d9d60e01b1781528151919250600091829182865af1505060019092019150610ae19050565b50505050565b323314610bc557600080fd5b606654604051600091610c1591733d602d80600a3d3981f3363d3d373d3d3d363d7360601b9160601b6001600160601b031916906e5af43d82803e903d91602b57fd5bf360881b90602001610fe1565b60408051601f1981840301815290829052610c3291602001611086565b60405160208183030381529060405280519060200120905060005b82811015610bb357600033858584818110610c6a57610c6a6110b5565b90506020020135604051602001610c82929190611040565b6040516020818303038152906040528051906020012090506000308285604051602001610cb1939291906110cb565b60408051601f19818403018152908290528051602090910120336024830152915060009060440160408051601f198184030181529190526020810180516001600160e01b031663218447d360e21b1781528151919250600091829182865af1505060019092019150610c4d9050565b610d28610d96565b6001600160a01b038116610d8d5760405162461bcd60e51b815260206004820152602660248201527f4f776e61626c653a206e6577206f776e657220697320746865207a65726f206160448201526564647265737360d01b6064820152608401610247565b6106d181610df0565b6033546001600160a01b031633146105c15760405162461bcd60e51b815260206004820181905260248201527f4f776e61626c653a2063616c6c6572206973206e6f7420746865206f776e65726044820152606401610247565b603380546001600160a01b038381166001600160a01b0319831681179093556040519116919082907f8be0079c531659141344cd1fd0a4f28419497f9722a3daafe3b4186f6b6457e090600090a35050565b600054610100900460ff16610e695760405162461bcd60e51b8152600401610247906110fe565b6105c1600054610100900460ff16610e935760405162461bcd60e51b8152600401610247906110fe565b6105c133610df0565b60008060408385031215610eaf57600080fd5b50508035926020909101359150565b600060208284031215610ed057600080fd5b81356001600160a01b0381168114610ee757600080fd5b9392505050565b60008083601f840112610f0057600080fd5b50813567ffffffffffffffff811115610f1857600080fd5b6020830191508360208260051b8501011115610f3357600080fd5b9250929050565b600080600060408486031215610f4f57600080fd5b833567ffffffffffffffff811115610f6657600080fd5b610f7286828701610eee565b909790965060209590950135949350505050565b600060208284031215610f9857600080fd5b5035919050565b60008060208385031215610fb257600080fd5b823567ffffffffffffffff811115610fc957600080fd5b610fd585828601610eee565b90969095509350505050565b6001600160601b0319938416815291909216601482015270ffffffffffffffffffffffffffffffffff19909116602882015260370190565b8082018082111561103a57634e487b7160e01b600052601160045260246000fd5b92915050565b60609290921b6001600160601b0319168252601482015260340190565b6020808252600f908201526e4572726f723a204f6e6c7920454f4160881b604082015260600190565b6000825160005b818110156110a7576020818601810151858301520161108d565b506000920191825250919050565b634e487b7160e01b600052603260045260246000fd5b6001600160f81b0319815260609390931b6001600160601b03191660018401526015830191909152603582015260550190565b6020808252602b908201527f496e697469616c697a61626c653a20636f6e7472616374206973206e6f74206960408201526a6e697469616c697a696e6760a81b60608201526080019056fea26469706673582212209212b176bf3e3969bdc611988729825bd1db9920cb2115faa37974fb8186d40764736f6c63430008110033",
  "linkReferences": {},
  "deployedLinkReferences": {}
}