{
  "_format": "hh-sol-artifact-1",
  "contractName": "XENFactory",
  "sourceName": "contracts/XEN-batch/XENFactory.sol",
  "abi": [
    {
      "anonymous": false,
      "inputs": [
        {
          "indexed": false,
          "internalType": "uint8",
          "name": "version",
          "type": "uint8"
        }
      ],
      "name": "Initialized",
      "type": "event"
    },
    {
      "anonymous": false,
      "inputs": [
        {
          "indexed": true,
          "internalType": "address",
          "name": "previousOwner",
          "type": "address"
        },
        {
          "indexed": true,
          "internalType": "address",
          "name": "newOwner",
          "type": "address"
        }
      ],
      "name": "OwnershipTransferred",
      "type": "event"
    },
    {
      "inputs": [
        {
          "internalType": "uint256[]",
          "name": "ids",
          "type": "uint256[]"
        }
      ],
      "name": "batchClaim",
      "outputs": [],
      "stateMutability": "nonpayable",
      "type": "function"
    },
    {
      "inputs": [
        {
          "internalType": "uint256[]",
          "name": "ids",
          "type": "uint256[]"
        },
        {
          "internalType": "uint256",
          "name": "term",
          "type": "uint256"
        }
      ],
      "name": "batchClaimAndMint",
      "outputs": [],
      "stateMutability": "nonpayable",
      "type": "function"
    },
    {
      "inputs": [
        {
          "internalType": "uint256",
          "name": "term",
          "type": "uint256"
        },
        {
          "internalType": "uint256",
          "name": "count",
          "type": "uint256"
        }
      ],
      "name": "batchMint",
      "outputs": [],
      "stateMutability": "nonpayable",
      "type": "function"
    },
    {
      "inputs": [
        {
          "internalType": "uint256[]",
          "name": "ids",
          "type": "uint256[]"
        },
        {
          "internalType": "uint256",
          "name": "term",
          "type": "uint256"
        }
      ],
      "name": "batchReuseMint",
      "outputs": [],
      "stateMutability": "nonpayable",
      "type": "function"
    },
    {
      "inputs": [],
      "name": "bytecodeHash",
      "outputs": [
        {
          "internalType": "bytes32",
          "name": "",
          "type": "bytes32"
        }
      ],
      "stateMutability": "view",
      "type": "function"
    },
    {
      "inputs": [
        {
          "internalType": "uint256[]",
          "name": "ids",
          "type": "uint256[]"
        }
      ],
      "name": "callKill",
      "outputs": [],
      "stateMutability": "nonpayable",
      "type": "function"
    },
    {
      "inputs": [],
      "name": "initialize",
      "outputs": [],
      "stateMutability": "nonpayable",
      "type": "function"
    },
    {
      "inputs": [],
      "name": "owner",
      "outputs": [
        {
          "internalType": "address",
          "name": "",
          "type": "address"
        }
      ],
      "stateMutability": "view",
      "type": "function"
    },
    {
      "inputs": [],
      "name": "proxyImplementation",
      "outputs": [
        {
          "internalType": "address",
          "name": "",
          "type": "address"
        }
      ],
      "stateMutability": "view",
      "type": "function"
    },
    {
      "inputs": [],
      "name": "renounceOwnership",
      "outputs": [],
      "stateMutability": "nonpayable",
      "type": "function"
    },
    {
      "inputs": [
        {
          "internalType": "address",
          "name": "_proxyImplementation",
          "type": "address"
        }
      ],
      "name": "setFactory",
      "outputs": [],
      "stateMutability": "nonpayable",
      "type": "function"
    },
    {
      "inputs": [
        {
          "internalType": "address",
          "name": "newOwner",
          "type": "address"
        }
      ],
      "name": "transferOwnership",
      "outputs": [],
      "stateMutability": "nonpayable",
      "type": "function"
    },
    {
      "inputs": [
        {
          "internalType": "address",
          "name": "",
          "type": "address"
        }
      ],
      "name": "userMintIndex",
      "outputs": [
        {
          "internalType": "uint256",
          "name": "",
          "type": "uint256"
        }
      ],
      "stateMutability": "view",
      "type": "function"
    }
  ],
  "bytecode": "0x608060405234801561001057600080fd5b50610d84806100206000396000f3fe608060405234801561001057600080fd5b50600436106100cf5760003560e01c8063715018a61161008c5780638da5cb5b116100665780638da5cb5b14610199578063a6140d3b146101aa578063bc292782146101bd578063f2fde38b146101d057600080fd5b8063715018a6146101765780638129fc1c1461017e5780638aa446141461018657600080fd5b80630c870f91146100d45780630ed64eff146101045780632c67484214610119578063420c6a2c146101475780635bb47808146101505780636d37f31314610163575b600080fd5b6066546100e7906001600160a01b031681565b6040516001600160a01b0390911681526020015b60405180910390f35b610117610112366004610add565b6101e3565b005b610139610127366004610aff565b60676020526000908152604090205481565b6040519081526020016100fb565b61013960655481565b61011761015e366004610aff565b610388565b610117610171366004610b7b565b610428565b610117610592565b6101176105a6565b610117610194366004610b7b565b6106af565b6033546001600160a01b03166100e7565b6101176101b8366004610bc7565b6107c9565b6101176101cb366004610bc7565b6108c4565b6101176101de366004610aff565b6109bb565b32331461020b5760405162461bcd60e51b815260040161020290610c09565b60405180910390fd5b60008111801561021b5750600082115b6102375760405162461bcd60e51b815260040161020290610c32565b60665460405160009161028791733d602d80600a3d3981f3363d3d373d3d3d363d7360601b9160601b6001600160601b031916906e5af43d82803e903d91602b57fd5bf360881b90602001610c5a565b60408051601f19818403018152918152336000908152606760205290812054919250906102b5906001610c92565b336000908152606760205260408120805492935085929091906102d9908490610c92565b909155505060405160248101859052600090819060440160408051601f198184030181529190526020810180516001600160e01b031662dda08b60e11b1790529050825b6103278685610c92565b81101561037f5760003382604051602001610343929190610cb9565b604051602081830303815290604052805190602001209050808651602088016000f593506000808451602086016000885af1505060010161031d565b50505050505050565b610390610a31565b606680546001600160a01b0319166001600160a01b0383161790556040516103ed90733d602d80600a3d3981f3363d3d373d3d3d363d7360601b90606084901b906e5af43d82803e903d91602b57fd5bf360881b90602001610c5a565b60408051601f198184030181529082905261040a91602001610cd6565b60408051601f19818403018152919052805160209091012060655550565b3233146104475760405162461bcd60e51b815260040161020290610c09565b600081116104675760405162461bcd60e51b815260040161020290610c32565b60005b8281101561058c5760003385858481811061048757610487610d05565b9050602002013560405160200161049f929190610cb9565b604051602081830303815290604052805190602001209050600030826065546040516020016104d093929190610d1b565b60408051601f19818403018152908290528051602090910120336024830152915060009060440160408051601f198184030181529181526020820180516001600160e01b031663218447d360e21b179052516024810187905290915060009060440160408051601f19818403018152919052602080820180516001600160e01b031662dda08b60e11b17905283519192506000918291850182875af1506000808251602084016000875af150506001909301925061046a915050565b50505050565b61059a610a31565b6105a46000610a8b565b565b600054610100900460ff16158080156105c65750600054600160ff909116105b806105e05750303b1580156105e0575060005460ff166001145b6106435760405162461bcd60e51b815260206004820152602e60248201527f496e697469616c697a61626c653a20636f6e747261637420697320616c72656160448201526d191e481a5b9a5d1a585b1a5e995960921b6064820152608401610202565b6000805460ff191660011790558015610666576000805461ff0019166101001790555b80156106ac576000805461ff0019169055604051600181527f7f26b83ff96e1f2b6a682f133852f6798a09c465da95921460cefb38474024989060200160405180910390a15b50565b3233146106ce5760405162461bcd60e51b815260040161020290610c09565b81158015906106dd5750600081115b6106f95760405162461bcd60e51b815260040161020290610c32565b60005b8281101561058c5760003385858481811061071957610719610d05565b90506020020135604051602001610731929190610cb9565b6040516020818303038152906040528051906020012090506000308260655460405160200161076293929190610d1b565b60408051601f1981840301815282825280516020918201206024808501899052835180860390910181526044909401909252820180516001600160e01b031662dda08b60e11b1781528251919350600091829182865af15050600190920191506106fc9050565b3233146107e85760405162461bcd60e51b815260040161020290610c09565b60005b818110156108bf5760003384848481811061080857610808610d05565b90506020020135604051602001610820929190610cb9565b6040516020818303038152906040528051906020012090506000308260655460405160200161085193929190610d1b565b60408051601f19818403018152908290528051602090910120336024830152915060009060440160408051601f198184030181529190526020810180516001600160e01b031662f55d9d60e01b1781528151919250600091829182865af15050600190920191506107eb9050565b505050565b3233146108e35760405162461bcd60e51b815260040161020290610c09565b60005b818110156108bf5760003384848481811061090357610903610d05565b9050602002013560405160200161091b929190610cb9565b6040516020818303038152906040528051906020012090506000308260655460405160200161094c93929190610d1b565b60408051601f19818403018152908290528051602090910120336024830152915060009060440160408051601f198184030181529190526020810180516001600160e01b031663218447d360e21b1781528151919250600091829182865af15050600190920191506108e69050565b6109c3610a31565b6001600160a01b038116610a285760405162461bcd60e51b815260206004820152602660248201527f4f776e61626c653a206e6577206f776e657220697320746865207a65726f206160448201526564647265737360d01b6064820152608401610202565b6106ac81610a8b565b6033546001600160a01b031633146105a45760405162461bcd60e51b815260206004820181905260248201527f4f776e61626c653a2063616c6c6572206973206e6f7420746865206f776e65726044820152606401610202565b603380546001600160a01b038381166001600160a01b0319831681179093556040519116919082907f8be0079c531659141344cd1fd0a4f28419497f9722a3daafe3b4186f6b6457e090600090a35050565b60008060408385031215610af057600080fd5b50508035926020909101359150565b600060208284031215610b1157600080fd5b81356001600160a01b0381168114610b2857600080fd5b9392505050565b60008083601f840112610b4157600080fd5b50813567ffffffffffffffff811115610b5957600080fd5b6020830191508360208260051b8501011115610b7457600080fd5b9250929050565b600080600060408486031215610b9057600080fd5b833567ffffffffffffffff811115610ba757600080fd5b610bb386828701610b2f565b909790965060209590950135949350505050565b60008060208385031215610bda57600080fd5b823567ffffffffffffffff811115610bf157600080fd5b610bfd85828601610b2f565b90969095509350505050565b6020808252600f908201526e4572726f723a204f6e6c7920454f4160881b604082015260600190565b6020808252600e908201526d496e76616c696420506172616d7360901b604082015260600190565b6001600160601b0319938416815291909216601482015270ffffffffffffffffffffffffffffffffff19909116602882015260370190565b80820180821115610cb357634e487b7160e01b600052601160045260246000fd5b92915050565b60609290921b6001600160601b0319168252601482015260340190565b6000825160005b81811015610cf75760208186018101518583015201610cdd565b506000920191825250919050565b634e487b7160e01b600052603260045260246000fd5b6001600160f81b0319815260609390931b6001600160601b0319166001840152601583019190915260358201526055019056fea264697066735822122058b6990ad586c7c685112a973a9a4005d97aa2133cd1658d9041c43cfa43371a64736f6c63430008110033",
  "linkReferences": {},
  "deployedLinkReferences": {}
}