{
  "_format": "hh-sol-artifact-1",
  "contractName": "XENProxyImplementation",
  "sourceName": "contracts/XEN-batch/XENFactory.sol",
  "abi": [
    {
      "inputs": [
        {
          "internalType": "address",
          "name": "_xenCrypto",
          "type": "address"
        },
        {
          "internalType": "address",
          "name": "_factory",
          "type": "address"
        }
      ],
      "stateMutability": "nonpayable",
      "type": "constructor"
    },
    {
      "inputs": [
        {
          "internalType": "address",
          "name": "to",
          "type": "address"
        }
      ],
      "name": "callClaimMintRewardAndShare",
      "outputs": [],
      "stateMutability": "nonpayable",
      "type": "function"
    },
    {
      "inputs": [
        {
          "internalType": "uint256",
          "name": "term",
          "type": "uint256"
        }
      ],
      "name": "callClaimRank",
      "outputs": [],
      "stateMutability": "nonpayable",
      "type": "function"
    },
    {
      "inputs": [
        {
          "internalType": "address",
          "name": "receiver",
          "type": "address"
        }
      ],
      "name": "destroy",
      "outputs": [],
      "stateMutability": "nonpayable",
      "type": "function"
    },
    {
      "inputs": [],
      "name": "factory",
      "outputs": [
        {
          "internalType": "address",
          "name": "",
          "type": "address"
        }
      ],
      "stateMutability": "view",
      "type": "function"
    },
    {
      "inputs": [],
      "name": "self",
      "outputs": [
        {
          "internalType": "address",
          "name": "",
          "type": "address"
        }
      ],
      "stateMutability": "view",
      "type": "function"
    },
    {
      "inputs": [],
      "name": "xenCrypto",
      "outputs": [
        {
          "internalType": "address",
          "name": "",
          "type": "address"
        }
      ],
      "stateMutability": "view",
      "type": "function"
    }
  ],
  "bytecode": "0x60e06040523060805234801561001457600080fd5b5060405161051f38038061051f833981016040819052610033916100c0565b6001600160a01b0382161580159061005357506001600160a01b03811615155b61008d5760405162461bcd60e51b8152602060048201526007602482015266125b9d985b1a5960ca1b604482015260640160405180910390fd5b6001600160a01b0391821660a0521660c0526100f3565b80516001600160a01b03811681146100bb57600080fd5b919050565b600080604083850312156100d357600080fd5b6100dc836100a4565b91506100ea602084016100a4565b90509250929050565b60805160a05160c0516103d561014a600039600081816101100152818161013d015281816101b301526102a101526000818160d60152818161022e01526103270152600081816093015261016701526103d56000f3fe608060405234801561001057600080fd5b50600436106100615760003560e01c8062f55d9d1461006657806301bb41161461007b5780637104ddb21461008e57806371141a58146100d157806386111f4c146100f8578063c45a01551461010b575b600080fd5b610079610074366004610356565b610132565b005b610079610089366004610386565b6101a8565b6100b57f000000000000000000000000000000000000000000000000000000000000000081565b6040516001600160a01b03909116815260200160405180910390f35b6100b57f000000000000000000000000000000000000000000000000000000000000000081565b610079610106366004610356565b610296565b6100b57f000000000000000000000000000000000000000000000000000000000000000081565b336001600160a01b037f00000000000000000000000000000000000000000000000000000000000000001614801561019357507f00000000000000000000000000000000000000000000000000000000000000006001600160a01b03163014155b61019c57600080fd5b806001600160a01b0316ff5b336001600160a01b037f000000000000000000000000000000000000000000000000000000000000000016146102185760405162461bcd60e51b815260206004820152601060248201526f27b7363c902c22a72330b1ba37b93c9760811b60448201526064015b60405180910390fd5b604051639ff054df60e01b8152600481018290527f00000000000000000000000000000000000000000000000000000000000000006001600160a01b031690639ff054df906024015b600060405180830381600087803b15801561027b57600080fd5b505af115801561028f573d6000803e3d6000fd5b5050505050565b336001600160a01b037f000000000000000000000000000000000000000000000000000000000000000016146103015760405162461bcd60e51b815260206004820152601060248201526f27b7363c902c22a72330b1ba37b93c9760811b604482015260640161020f565b604051631c56030560e01b81526001600160a01b038281166004830152606460248301527f00000000000000000000000000000000000000000000000000000000000000001690631c56030590604401610261565b60006020828403121561036857600080fd5b81356001600160a01b038116811461037f57600080fd5b9392505050565b60006020828403121561039857600080fd5b503591905056fea2646970667358221220307a6a7d78ec542d6222a35983bdd34491af32845dc77d9f4adbe084aa2fc88064736f6c63430008110033",
  "linkReferences": {},
  "deployedLinkReferences": {}
}